{
  "_format": "hh-sol-artifact-1",
  "contractName": "EnglishAuctionCollateralLiquidator",
  "sourceName": "contracts/liquidators/EnglishAuctionCollateralLiquidator.sol",
  "abi": [
    {
      "inputs": [
        {
          "internalType": "address[]",
          "name": "collateralWrappers_",
          "type": "address[]"
        }
      ],
      "stateMutability": "nonpayable",
      "type": "constructor"
    },
    {
      "inputs": [],
      "name": "InvalidAuction",
      "type": "error"
    },
    {
      "inputs": [],
      "name": "InvalidBid",
      "type": "error"
    },
    {
      "inputs": [],
      "name": "InvalidClaim",
      "type": "error"
    },
    {
      "inputs": [],
      "name": "InvalidLiquidation",
      "type": "error"
    },
    {
      "inputs": [],
      "name": "InvalidParameters",
      "type": "error"
    },
    {
      "inputs": [],
      "name": "InvalidToken",
      "type": "error"
    },
    {
      "anonymous": false,
      "inputs": [
        {
          "indexed": true,
          "internalType": "bytes32",
          "name": "liquidationHash",
          "type": "bytes32"
        },
        {
          "indexed": true,
          "internalType": "address",
          "name": "collateralToken",
          "type": "address"
        },
        {
          "indexed": true,
          "internalType": "uint256",
          "name": "collateralTokenId",
          "type": "uint256"
        },
        {
          "indexed": false,
          "internalType": "address",
          "name": "bidder",
          "type": "address"
        },
        {
          "indexed": false,
          "internalType": "uint256",
          "name": "amount",
          "type": "uint256"
        }
      ],
      "name": "AuctionBid",
      "type": "event"
    },
    {
      "anonymous": false,
      "inputs": [
        {
          "indexed": true,
          "internalType": "bytes32",
          "name": "liquidationHash",
          "type": "bytes32"
        },
        {
          "indexed": true,
          "internalType": "address",
          "name": "collateralToken",
          "type": "address"
        },
        {
          "indexed": true,
          "internalType": "uint256",
          "name": "collateralTokenId",
          "type": "uint256"
        }
      ],
      "name": "AuctionCreated",
      "type": "event"
    },
    {
      "anonymous": false,
      "inputs": [
        {
          "indexed": true,
          "internalType": "bytes32",
          "name": "liquidationHash",
          "type": "bytes32"
        },
        {
          "indexed": true,
          "internalType": "address",
          "name": "collateralToken",
          "type": "address"
        },
        {
          "indexed": true,
          "internalType": "uint256",
          "name": "collateralTokenId",
          "type": "uint256"
        },
        {
          "indexed": false,
          "internalType": "address",
          "name": "winner",
          "type": "address"
        },
        {
          "indexed": false,
          "internalType": "uint256",
          "name": "proceeds",
          "type": "uint256"
        }
      ],
      "name": "AuctionEnded",
      "type": "event"
    },
    {
      "anonymous": false,
      "inputs": [
        {
          "indexed": true,
          "internalType": "bytes32",
          "name": "liquidationHash",
          "type": "bytes32"
        },
        {
          "indexed": true,
          "internalType": "address",
          "name": "collateralToken",
          "type": "address"
        },
        {
          "indexed": true,
          "internalType": "uint256",
          "name": "collateralTokenId",
          "type": "uint256"
        },
        {
          "indexed": false,
          "internalType": "uint64",
          "name": "endTime",
          "type": "uint64"
        }
      ],
      "name": "AuctionExtended",
      "type": "event"
    },
    {
      "anonymous": false,
      "inputs": [
        {
          "indexed": true,
          "internalType": "bytes32",
          "name": "liquidationHash",
          "type": "bytes32"
        },
        {
          "indexed": true,
          "internalType": "address",
          "name": "collateralToken",
          "type": "address"
        },
        {
          "indexed": true,
          "internalType": "uint256",
          "name": "collateralTokenId",
          "type": "uint256"
        },
        {
          "indexed": false,
          "internalType": "uint64",
          "name": "endTime",
          "type": "uint64"
        }
      ],
      "name": "AuctionStarted",
      "type": "event"
    },
    {
      "anonymous": false,
      "inputs": [
        {
          "indexed": true,
          "internalType": "bytes32",
          "name": "liquidationHash",
          "type": "bytes32"
        },
        {
          "indexed": false,
          "internalType": "uint256",
          "name": "proceeds",
          "type": "uint256"
        }
      ],
      "name": "LiquidationEnded",
      "type": "event"
    },
    {
      "anonymous": false,
      "inputs": [
        {
          "indexed": true,
          "internalType": "bytes32",
          "name": "liquidationHash",
          "type": "bytes32"
        },
        {
          "indexed": true,
          "internalType": "address",
          "name": "source",
          "type": "address"
        },
        {
          "indexed": true,
          "internalType": "bytes32",
          "name": "liquidationContextHash",
          "type": "bytes32"
        },
        {
          "indexed": false,
          "internalType": "address",
          "name": "currencyToken",
          "type": "address"
        },
        {
          "indexed": false,
          "internalType": "uint16",
          "name": "auctionCount",
          "type": "uint16"
        }
      ],
      "name": "LiquidationStarted",
      "type": "event"
    },
    {
      "inputs": [],
      "name": "IMPLEMENTATION_VERSION",
      "outputs": [
        {
          "internalType": "string",
          "name": "",
          "type": "string"
        }
      ],
      "stateMutability": "view",
      "type": "function"
    },
    {
      "inputs": [],
      "name": "auctionDuration",
      "outputs": [
        {
          "internalType": "uint64",
          "name": "",
          "type": "uint64"
        }
      ],
      "stateMutability": "view",
      "type": "function"
    },
    {
      "inputs": [
        {
          "internalType": "address",
          "name": "collateralToken",
          "type": "address"
        },
        {
          "internalType": "uint256",
          "name": "collateralTokenId",
          "type": "uint256"
        }
      ],
      "name": "auctions",
      "outputs": [
        {
          "components": [
            {
              "internalType": "bytes32",
              "name": "liquidationHash",
              "type": "bytes32"
            },
            {
              "internalType": "uint64",
              "name": "endTime",
              "type": "uint64"
            },
            {
              "internalType": "address",
              "name": "highestBidder",
              "type": "address"
            },
            {
              "internalType": "uint256",
              "name": "highestBid",
              "type": "uint256"
            }
          ],
          "internalType": "struct EnglishAuctionCollateralLiquidator.Auction",
          "name": "",
          "type": "tuple"
        }
      ],
      "stateMutability": "view",
      "type": "function"
    },
    {
      "inputs": [
        {
          "internalType": "address",
          "name": "collateralToken",
          "type": "address"
        },
        {
          "internalType": "uint256",
          "name": "collateralTokenId",
          "type": "uint256"
        },
        {
          "internalType": "uint256",
          "name": "amount",
          "type": "uint256"
        }
      ],
      "name": "bid",
      "outputs": [],
      "stateMutability": "nonpayable",
      "type": "function"
    },
    {
      "inputs": [
        {
          "internalType": "address",
          "name": "collateralToken",
          "type": "address"
        },
        {
          "internalType": "uint256",
          "name": "collateralTokenId",
          "type": "uint256"
        },
        {
          "internalType": "bytes",
          "name": "liquidationContext",
          "type": "bytes"
        }
      ],
      "name": "claim",
      "outputs": [],
      "stateMutability": "nonpayable",
      "type": "function"
    },
    {
      "inputs": [
        {
          "internalType": "uint64",
          "name": "auctionDuration_",
          "type": "uint64"
        },
        {
          "internalType": "uint64",
          "name": "timeExtensionWindow_",
          "type": "uint64"
        },
        {
          "internalType": "uint64",
          "name": "timeExtension_",
          "type": "uint64"
        },
        {
          "internalType": "uint64",
          "name": "minimumBidBasisPoints_",
          "type": "uint64"
        }
      ],
      "name": "initialize",
      "outputs": [],
      "stateMutability": "nonpayable",
      "type": "function"
    },
    {
      "inputs": [
        {
          "internalType": "address",
          "name": "currencyToken",
          "type": "address"
        },
        {
          "internalType": "address",
          "name": "collateralToken",
          "type": "address"
        },
        {
          "internalType": "uint256",
          "name": "collateralTokenId",
          "type": "uint256"
        },
        {
          "internalType": "bytes",
          "name": "collateralWrapperContext",
          "type": "bytes"
        },
        {
          "internalType": "bytes",
          "name": "liquidationContext",
          "type": "bytes"
        }
      ],
      "name": "liquidate",
      "outputs": [],
      "stateMutability": "nonpayable",
      "type": "function"
    },
    {
      "inputs": [
        {
          "internalType": "bytes32",
          "name": "liquidationHash",
          "type": "bytes32"
        }
      ],
      "name": "liquidations",
      "outputs": [
        {
          "components": [
            {
              "internalType": "address",
              "name": "source",
              "type": "address"
            },
            {
              "internalType": "address",
              "name": "currencyToken",
              "type": "address"
            },
            {
              "internalType": "uint16",
              "name": "auctionCount",
              "type": "uint16"
            },
            {
              "internalType": "bytes32",
              "name": "liquidationContextHash",
              "type": "bytes32"
            },
            {
              "internalType": "uint256",
              "name": "proceeds",
              "type": "uint256"
            }
          ],
          "internalType": "struct EnglishAuctionCollateralLiquidator.Liquidation",
          "name": "",
          "type": "tuple"
        }
      ],
      "stateMutability": "view",
      "type": "function"
    },
    {
      "inputs": [],
      "name": "minimumBidBasisPoints",
      "outputs": [
        {
          "internalType": "uint64",
          "name": "",
          "type": "uint64"
        }
      ],
      "stateMutability": "view",
      "type": "function"
    },
    {
      "inputs": [],
      "name": "name",
      "outputs": [
        {
          "internalType": "string",
          "name": "",
          "type": "string"
        }
      ],
      "stateMutability": "pure",
      "type": "function"
    },
    {
      "inputs": [],
      "name": "timeExtension",
      "outputs": [
        {
          "internalType": "uint64",
          "name": "",
          "type": "uint64"
        }
      ],
      "stateMutability": "view",
      "type": "function"
    },
    {
      "inputs": [],
      "name": "timeExtensionWindow",
      "outputs": [
        {
          "internalType": "uint64",
          "name": "",
          "type": "uint64"
        }
      ],
      "stateMutability": "view",
      "type": "function"
    }
  ],
  "bytecode": "0x61012060405234620002275762001dfd803803806200001e816200023f565b92833981019060208082840312620002275781516001600160401b03928382116200022757019280601f85011215620002275783519283116200022b578260051b93826200006e8187016200023f565b80958152019083829682010192831162000227578301905b828210620002065785856001915f908382556005835111620001f45782511580620001eb57620001d757516001600160a01b03165b608052815183811115620001cf57831015620001a15760408201516001600160a01b03165b60a05281516002811115620001c75760021015620001a15760608201516001600160a01b03165b60c05281516003811115620001bf5760031015620001a15760808201516001600160a01b03165b60e05281516004811115620001b55760041015620001a1575060a001516001600160a01b0316905b610100918252805460ff191681179055604051611b97918262000266833960805182611289015260a0518261134f015260c05182611323015260e051826112f7015251816112cf0152f35b634e487b7160e01b81526032600452602490fd5b5090509062000156565b50806200012e565b508062000107565b5080620000e0565b634e487b7160e01b82526032600452602482fd5b505080620000bb565b604051630e52390960e41b8152600490fd5b81516001600160a01b03811681036200022757815290830190830162000086565b5f80fd5b634e487b7160e01b5f52604160045260245ffd5b6040519190601f01601f191682016001600160401b038111838210176200022b5760405256fe60806040526004361015610011575f80fd5b5f3560e01c806306fdde03146100d45780630a61afeb146100cf5780630cbf54c8146100ca5780630f41ba4b146100c5578063143551e4146100c05780633366ff72146100bb57806344f91c1e146100b65780635403f1f4146100b1578063754b377c146100ac57806388622454146100a75780638f0bc152146100a25763bc1c85df1461009d575f80fd5b610f1f565b610d40565b610d17565b610cdc565b610bee565b610b18565b6109de565b61095d565b6105aa565b610581565b6101d0565b61012e565b5f9103126100e357565b5f80fd5b602080825282518183018190529093925f5b82811061011a57505060409293505f838284010152601f8019910116010190565b8181018601518482016040015285016100f9565b346100e3575f3660031901126100e35761018e60405161014d81610c76565b602281527f456e676c69736841756374696f6e436f6c6c61746572616c4c6971756964617460208201526137b960f11b6040820152604051918291826100e7565b0390f35b6001600160a01b038116036100e357565b9181601f840112156100e3578235916001600160401b0383116100e357602083818601950101116100e357565b346100e35760a03660031901126100e35760048035906101ef82610192565b602435906101fc82610192565b604435916001600160401b03916064358381116100e35761022090369083016101a3565b90936084359081116100e35761023990369084016101a3565b929094610244611228565b6001600160a01b03858116908115908115610576575b50610565576102698887611379565b9761029b61028f6102828b5f52600460205260405f2090565b546001600160a01b031690565b6001600160a01b031690565b610554576102a88761127c565b96871561053557506040516319f3f53160e31b8152955f87806102cf8988878b85016111d7565b0381865afa80156104f4575f97889161050c575b50906102f09197996113bc565b96878b8b7fb147b2c3b3dced11f6425f7709a14fc2fdac9121a4bc63cde3bd3d6d4d8066b061034a6103248c5161ffff1690565b604080516001600160a01b03909616865261ffff90911660208601523394918291820190565b0390a45f5b875161ffff82169081101561038257906103788c8c61037161037d958d611119565b51916113e8565b611210565b61034f565b50506104478b6103df8c8b6103c661039c8d5161ffff1690565b6103bb6103a7610ccd565b338152966001600160a01b03166020880152565b61ffff166040860152565b60608401525f60808401525f52600460205260405f2090565b815181546001600160a01b0319166001600160a01b0391821617825560208301516001830180546040860151929093166001600160b01b03199093169290921760a09190911b61ffff60a01b1617905590600390608090606081015160028501550151910155565b823b156100e357604080516323b872dd60e01b815233878201908152306020820152918201849052905f9082908190606001038183885af180156104f4576104f9575b5061049b575b61049960015f55565b005b813b156100e3575f80946104c360405197889687958694635a098a4760e11b865285016111d7565b03925af180156104f4576104db575b80808080610490565b806104e86104ee92610c48565b806100d9565b806104d2565b6111f1565b806104e861050692610c48565b8661048a565b61052d91506102f092983d8091833e6105258183610cac565b81019061112d565b9097916102e3565b6102f09098966105436110de565b978361054e8a6110f8565b526113bc565b604051638591487360e01b81528490fd5b60405163c1ab6dc160e01b81528390fd5b90508916155f61025a565b346100e3575f3660031901126100e35760206001600160401b0360015460081c16604051908152f35b346100e35760603660031901126100e3576004356105c781610192565b60243590604435906105d7611228565b61060a610605846105f88460018060a01b03165f52600360205260405f2090565b905f5260205260405f2090565b611083565b61062561062082515f52600460205260405f2090565b611036565b805190916001600160a01b039182161561094b5780511561094b5760208101926001600160401b03908161066086516001600160401b031690565b16801515908161093f575b506108e457606083018051808911908115916108f6575b506108e45761028f6020899361081a938560026107f18f6105f88f7fa7c128b99010947a1f4c11c2791698647f041d3fe819f2de29ab55984ffd0e379f8f8f906108239f6106d88794516001600160401b031690565b80821661087457506107866107267f6ce626964948915242311703d9e5302982884910213a953bc458fbf049baa8b59261071e6001546001600160401b039060081c1690565b90421661152b565b9361076785600161074b896105f88c60018060a01b03165f52600360205260405f2090565b01906001600160401b03166001600160401b0319825416179055565b516040516001600160401b039095168552928616939081906020820190565b0390a45b6107d83360016107ae866105f88660018060a01b03165f52600360205260405f2090565b018054600160401b600160e01b03191660409290921b600160401b600160e01b0316919091179055565b6001600160a01b03165f90815260036020526040902090565b015560408801516001600160a01b03169089821661084a575b505001516001600160a01b031690565b3090339061158e565b51604080513381526020810196909652919093169390819081015b0390a461049960015f55565b8284015161086d9290610865906001600160a01b031661028f565b915191611546565b5f8061080a565b906108828142168093611512565b6001549082808360481c16911611156108a1575b50505050505061078a565b7f96ab328a5513d7d1bbdf7fd4a048e703ccfbd0fbc3ff55923840cc98f3200ccb926108d5926107269260881c169061152b565b0390a4828f8f905f8080610896565b60405163c6388ef760e01b8152600490fd5b6109019150896114f2565b610938610930835161092a61091e6002546001600160401b031690565b6001600160401b031690565b906114ff565b612710900490565b115f610682565b9050824216115f61066b565b60405163010ab10b60e51b8152600490fd5b346100e3575f3660031901126100e35760206001600160401b0360015460881c16604051908152f35b600435906001600160401b03821682036100e357565b602435906001600160401b03821682036100e357565b604435906001600160401b03821682036100e357565b606435906001600160401b03821682036100e357565b346100e35760803660031901126100e3576109f7610986565b6109ff61099c565b610a076109b2565b90610a106109c8565b91610a2c610a27610a2360015460ff1690565b1590565b610ff4565b6001600160401b038083168186169181831115610b065783161115610b065715610b0657610abd610aea92610a9461049996610a6f600160ff1981541617600155565b68ffffffffffffffff006001549160081b169068ffffffffffffffff00191617600155565b67ffffffffffffffff60481b6001549160481b169067ffffffffffffffff60481b191617600155565b6001805467ffffffffffffffff60881b191660889290921b67ffffffffffffffff60881b16919091179055565b6001600160401b03166001600160401b03196002541617600255565b604051630e52390960e41b8152600490fd5b346100e3576040806003193601126100e35761018e9060043590610b3b82610192565b60028160608151610b4b81610c28565b5f9181838093528260208201528285820152015260018060a01b0380951681526003602052818120602435825260205220825193610b8885610c28565b8154855260018201546001600160401b0381166020870152841c16838501520154606083015251918291829190916060806080830194805184526001600160401b03602082015116602085015260018060a01b0360408201511660408501520151910152565b346100e3575f3660031901126100e35760206001600160401b0360025416604051908152f35b634e487b7160e01b5f52604160045260245ffd5b608081019081106001600160401b03821117610c4357604052565b610c14565b6001600160401b038111610c4357604052565b60a081019081106001600160401b03821117610c4357604052565b606081019081106001600160401b03821117610c4357604052565b604081019081106001600160401b03821117610c4357604052565b90601f801991011681019081106001600160401b03821117610c4357604052565b60405190610cda82610c5b565b565b346100e3575f3660031901126100e35761018e604051610cfb81610c91565b6003815262312e3160e81b6020820152604051918291826100e7565b346100e3575f3660031901126100e35760206001600160401b0360015460481c16604051908152f35b346100e35760603660031901126100e3576004803590610d5f82610192565b602435916001600160401b03916044358381116100e357610d8390369083016101a3565b939092610d8e611228565b610daf610605876105f88460018060a01b03165f52600360205260405f2090565b94855115610f0e5760408601805190956001600160a01b03949091851615610efd57610de861091e60208a01516001600160401b031690565b9042161115610eec5790610dfc91876117e1565b610e2e610e1d876105f88460018060a01b03165f52600360205260405f2090565b60025f918281558260018201550155565b8351911693906001600160a01b031691843b156100e357604080516323b872dd60e01b8152309281019283526001600160a01b03909416602083015281018690525f9083908190606001038183885af19182156104f4577f5304ef943b158ff337d701351a05a88772996aaca08a95061633571586c9e33392610ed9575b5080519251606090910151604080516001600160a01b03909316835260208301919091528190810161083e565b806104e8610ee692610c48565b5f610eac565b604051633b4f091f60e21b81528590fd5b604051633b4f091f60e21b81528690fd5b60405163010ab10b60e51b81528490fd5b346100e35760203660031901126100e35761018e60408060808151610f4381610c5b565b5f918183809352826020820152828582015282606082015201526004358152600460205220906003815192610f7784610c5b565b61ffff60018060a01b038083541686526001830154908116602087015260a01c16838501526002810154606085015201546080830152519182918291909160808060a083019460018060a01b03808251168552602082015116602085015261ffff6040820151166040850152606081015160608501520151910152565b15610ffb57565b60405162461bcd60e51b8152602060048201526013602482015272105b1c9958591e481a5b9a5d1a585b1a5e9959606a1b6044820152606490fd5b9060405161104381610c5b565b82546001600160a01b0390811682526001840154908116602083015260a01c61ffff16604082015260028301546060820152600392909201546080830152565b9060405161109081610c28565b8254815260018301546001600160401b03811660208301526001600160a01b03604091821c16908201526002909201546060830152565b6001600160401b038111610c435760051b60200190565b604051906110eb82610c91565b6001825260203681840137565b8051156111055760200190565b634e487b7160e01b5f52603260045260245ffd5b80518210156111055760209160051b010190565b91906040838203126100e357825161114481610192565b9260209081810151906001600160401b0382116100e357019180601f840112156100e3578251611173816110c7565b936111816040519586610cac565b818552838086019260051b8201019283116100e3578301905b8282106111a8575050505090565b8151815290830190830161119a565b908060209392818452848401375f828201840152601f01601f1916010190565b6040906111ee9492815281602082015201916111b7565b90565b6040513d5f823e3d90fd5b634e487b7160e01b5f52601160045260245ffd5b61ffff8091169081146112235760010190565b6111fc565b60025f54146112375760025f55565b60405162461bcd60e51b815260206004820152601f60248201527f5265656e7472616e637947756172643a207265656e7472616e742063616c6c006044820152606490fd5b6001600160a01b039081167f00000000000000000000000000000000000000000000000000000000000000008216811491821561134d575b8215611321575b82156112f5575b82156112cd57505090565b7f00000000000000000000000000000000000000000000000000000000000000001614919050565b7f00000000000000000000000000000000000000000000000000000000000000008116821492506112c2565b7f00000000000000000000000000000000000000000000000000000000000000008116821492506112bb565b7f00000000000000000000000000000000000000000000000000000000000000008116821492506112b4565b906040519060208201924684526bffffffffffffffffffffffff199060601b1660408301526054820152426074820152607481526113b681610c5b565b51902090565b906113b66040805183819460208301964688528484013781015f83820152036020810184520182610cac565b60018060a01b0391828116925f9184835260036020526040808420878552602052808420546114e2577f15271099786b82529b8cdd3fb785da93c0460a55d76f84d4c6dbce07f11c70e89392916114da82600293519461144786610c28565b88865260208601918783528087019088825261147a60608901968a885260018060a01b03165f52600360205260405f2090565b8d8a526020528820965187556114b46001600160401b036001890194511684906001600160401b03166001600160401b0319825416179055565b518254600160401b600160e01b031916911660401b600160401b600160e01b0316179055565b5191015580a4565b5163010ab10b60e51b8152600490fd5b9190820391821161122357565b8181029291811591840414171561122357565b6001600160401b03918216908216039190821161122357565b9190916001600160401b038080941691160191821161122357565b60405163a9059cbb60e01b60208201526001600160a01b0390921660248301526044820192909252610cda9161158982606481015b03601f198101845283610cac565b611647565b6040516323b872dd60e01b60208201526001600160a01b0392831660248201529290911660448301526064820192909252610cda91611589826084810161157b565b908160209103126100e3575180151581036100e35790565b156115ef57565b60405162461bcd60e51b815260206004820152602a60248201527f5361666545524332303a204552433230206f7065726174696f6e20646964206e6044820152691bdd081cdd58d8d9595960b21b6064820152608490fd5b60405191906001600160a01b031661165e83610c91565b5f806020938486527f5361666545524332303a206c6f772d6c6576656c2063616c6c206661696c656485870152848151910182855af1923d15611703573d6001600160401b038111610c4357610cda946116d693604051926116c987601f19601f8401160185610cac565b83523d5f8785013e61170f565b80519182159283156116eb575b5050506115e8565b6116fb93508201810191016115d0565b5f80806116e3565b6116d691610cda946060915b919290156117715750815115611723575090565b3b1561172c5790565b60405162461bcd60e51b815260206004820152601d60248201527f416464726573733a2063616c6c20746f206e6f6e2d636f6e74726163740000006044820152606490fd5b8251909150156117845750805190602001fd5b60405162461bcd60e51b81529081906117a090600483016100e7565b0390fd5b61ffff9081165f19019190821161122357565b9190820180921161122357565b9392916020916117dc916040875260408701916111b7565b930152565b6117f761062082515f52600460205260405f2090565b80519093906001600160a01b031615611a1d57606084015161181982856113bc565b03611a1d5761ffff611838611833604087015161ffff1690565b6117a4565b166119a95761185060808501516060840151906117b7565b9361187c8561186b61028f602085015160018060a01b031690565b83516001600160a01b031690611546565b80516001600160a01b0316803b15159081611999575b50611905575b50507f1f9fa6411ad9d09ec7747709c06a55c982fdf8da761d2c2c32180e06e0a1fcb79150806118ee6118d761190093515f52600460205260405f2090565b60035f918281558260018201558260028201550155565b51604051938452929081906020820190565b0390a2565b5161191a9061028f906001600160a01b031681565b92833b156100e357611948935f9283879360405197889586948593630956170560e11b8552600485016117c4565b03925af19081156104f4577f1f9fa6411ad9d09ec7747709c06a55c982fdf8da761d2c2c32180e06e0a1fcb79261190092611986575b819250611898565b806104e861199392610c48565b5f61197e565b6119a39150611a2f565b5f611892565b50610cda9250600191508060606119ee9201516119dd60036119d484515f52600460205260405f2090565b019182546117b7565b9055515f52600460205260405f2090565b018054611a019060a01c61ffff166117a4565b815461ffff60a01b191660a09190911b61ffff60a01b16179055565b604051633b4f091f60e21b8152600490fd5b604051906020808301815f6301ffc9a760e01b9586845286602482015260248152611a5981610c76565b51617530938685fa933d5f519086611afb575b5085611af1575b5084611a90575b50505081611a86575090565b6111ee9150611b06565b839450905f91839460405185810192835263ffffffff60e01b602482015260248152611abb81610c76565b5192fa5f5190913d83611ae6575b505081611adc575b5015905f8080611a7a565b905015155f611ad1565b101591505f80611ac9565b151594505f611a73565b84111595505f611a6c565b5f602091604051838101906301ffc9a760e01b8252630956170560e11b602482015260248152611b3581610c76565b5191617530fa5f513d82611b55575b5081611b4e575090565b9050151590565b6020111591505f611b4456fea264697066735822122052aec3a7de2ea58eb084cc1082951f5fc14fd0757b87ed1247ff0822b87d1f4464736f6c63430008140033",
  "linkReferences": {},
  "deployedLinkReferences": {}
}